:020000040800F2
:10000000A0050020C50000085D1100084B10000885
:1000100000000000000000000000000000000000E0
:10002000000000000000000000000000A711000810
:100030000000000000000000A5110008A911000840
:10004000D700000800000000D7000008D700000813
:10005000D7000008D7000008D7000008D700000824
:1000600000000000D7000008D7000008D7000008F3
:10007000D7000008D7000008D700000800000000E3
:10008000D70000080000000000000000D7000008B2
:1000900000000000D7000008D7000008D7000008C3
:1000A00000000000D7000008000000005118000800
:1000B0000348854600F03EF80048004789190008CB
:1000C000A00500200448804704480047FEE7FEE7FB
:1000D000FEE7FEE7FEE7FEE721120008B100000898
:1000E00030B50B46014600202022012409E00D46D0
:1000F000D5409D4205D31D469540491B2546954058
:1001000040191546521E002DF1DC30BD30B50546B4
:100110002A460B4610781C78521C5B1C002801D024
:10012000A042F7D0002C03D0002802D06D1CEFE7CE
:10013000284630BD064C0125064E05E0E36807CC95
:100140002B430C3C98471034B442F7D3FFF7B4FF6D
:10015000201A0008401A000870B50024014620311A
:100160004A78022A03D004218163012416E0026840
:1001700013680E25AB431360026813685B085B00CD
:1001800013600122056C1346AB40C56B6B604A706F
:1001900000220A70416B002900D08847204670BDBC
:1001A00031B500F0B5F8009C0546601C00D0641C19
:1001B00000F0AEF8401BA042FAD338BDF8B50023DA
:1001C0008DE001249C40A44622407DD04C68022C46
:1001D00001D0122C0CD1DC08A40027183C6A5D0762
:1001E000ED0E0F26AE40B4430E69AE4026433E628C
:1001F00005685E000324B4400F79A543BF07BF0F15
:10020000B7402F4307604D68012D05D0022D03D064
:10021000112D01D0122D0ED18568CF68A543B740AE
:100220002F43876047686546AF430D79ED06ED0FB4
:100230009D403D434560C568A5438C68B4402C4350
:10024000C4604C68E40049D5284CA56901263543B3
:10025000A561A4699D0834400094254CAD002F1978
:10026000BC689D072E0F0F25B540AC430925ED0650
:10027000A84201D100250FE01E4DA84201D1012561
:100280000AE01D4DA84201D1022505E01B4DA84200
:1002900001D1032500E00525B5402543BD60184C7C
:1002A00025684E689543F60300D5154325606568BB
:1002B0004E689543B60300D515436560A5684E6842
:1002C0009543F60202D500E008E01543A560E56815
:1002D0004E689543B60200D51543E5605B1C0A687D
:1002E0001446DC4000D06CE7F8BD0000001002406E
:1002F000000001400004004800080048000C0048CD
:1003000000040140002A01D081617047816270477A
:100310000148006870470000200000200248016882
:10032000491C0160704700002000002010B50648FD
:100330000168102211430160002000F007F800F06E
:1003400017F8002010BD00000020024010B5044640
:1003500000F042F97D21C900FFF7C2FE00F046FB24
:1003600000222146501E00F029F8002010BD000098
:1003700008B50C48816901221143816180691040F0
:10038000002200901146501F00F018F8002211467C
:10039000901E00F013F800221146501E00F00EF8D7
:1003A00008BD000000100240C106C90E01208840AF
:1003B000014908607047000000E100E010B500F05E
:1003C000CFFE10BDF8B505460068354CC00352D5C8
:1003D000E0690026C00007D4E16920040143E1611F
:1003E000E1690140012600912E480168C90510D439
:1003F0000168821511430160FFF78AFF074604E098
:10040000FFF786FFC01B642824D826480068C00573
:10041000F6D5206A03273F02384020D0696839406A
:1004200081421CD0206A226AB843012109040A4390
:100430002262226A8A4322622062C0070FD0FFF73D
:1004400067FF009008E0FFF763FF0099411A164824
:10045000814201D90320F8BD206A8007F3D5206AC4
:100460006968B84308432062002E04D0E169012086
:1004700000078143E1612878C00705D0206BA96897
:1004800080088000084320632878800605D5206B0B
:1004900010218843E968084320630020F8BD00006C
:1004A000001002400070004088130000F8B50546B7
:1004B00044480E460068C007C00FB0420AD2414807
:1004C000016849084900314301600068C007C00F56
:1004D000B0425CD128783C4C800705D56068F0219B
:1004E0008843A968084360602878C0073FD06868DF
:1004F000012813D02168022813D08907002946DA81
:1005000061688908890001436160FFF701FF69683C
:10051000074601290DD0022917D024E0216889035C
:10052000ECE78901EAE7FFF7F3FEC11B27488142A8
:1005300017D860680007800F0128F4D117E0FFF793
:10054000E7FEC11B214881420BD860680007800F7D
:100550000228F4D10BE0FFF7DBFEC11B1B488142F0
:1005600001D90320F8BD60680007800FF3D115485A
:100570000168C907C90FB1420BD901684908490090
:10058000314301600068C007C00FB04201D00120B4
:10059000F8BD2878400706D560680721090288431E
:1005A000E9680843606000F02DF86168084A0906B0
:1005B000090F515CC840074908600020FFF7C6FEDC
:1005C0000020F8BD00200240001002408813000007
:1005D000081A000824000020014800687047000045
:1005E000240000200448054900684968044A490578
:1005F000490F515CC84070472400002000100240A1
:10060000181A000810B512A30FCB88B06C460FC49F
:1006100013A30FCB0FC416494A680C20134603409E
:100620001448042B0FD0082B0DD193021B0F6C46DE
:10063000E45CC96A04AB0907090F595CD20304D50D
:10064000FFF74EFD604308B010BD0B486043FAE76A
:1006500002030405060708090A0B0C0D0E0F101003
:100660000102030405060708090A0B0C0D0E0F1002
:100670000010024000127A0000093D00FEB5044659
:100680000078D04DC00747D068680007800F012868
:1006900007D068680007800F022809D16868C00386
:1006A00006D52868800337D5606800287ED033E0FF
:1006B000012062680004012A11D08100002A01D0C3
:1006C000052A10D02A6882432A6028688843286057
:1006D0006068002814D0FFF71BFE06460CE029686E
:1006E00001432960F4E72A680A432A60F7E7FFF725
:1006F0000FFE801B64286FD828688003F7D50BE0B5
:10070000FFF706FE064604E0FFF702FE801B6428A2
:10071000F1D828688003F7D42078012680070028C4
:100720003BDA68680007800F07D068680007800F11
:10073000022809D16868C00306D42868800715D547
:10074000E068012832D111E0E0680028286815D05F
:1007500030432860FFF7DCFD074604E0FFF7D8FDD3
:10076000C01B0228C7D828688007F7D52868F82159
:1007700088432169C900084328600EE04008400012
:100780002860FFF7C5FD074604E0FFF7C1FDC01B69
:100790000228B0D828688007F7D42078000724D52D
:1007A000E0690028686A10D0304300E008E1686220
:1007B000FFF7AEFD074604E0FFF7AAFDC01B0228C5
:1007C00099D8686A8007F7D50FE040084000686252
:1007D000FFF79EFD074605E09DE0FFF799FDC01B72
:1007E000022888D8686A8007F7D420780427400751
:1007F000002860DA00200190E869C00008D4E969A7
:10080000B8060143E961E9690140012000910190C6
:100810006D480168C90511D4016882151143016052
:10082000FFF776FD009005E0FFF772FD0099401A92
:10083000642870D864480068C005F5D5A068012810
:100840000AD0002801D0052810D0286A40084000AE
:100850002862286AB84301E0286A30432862A06809
:10086000002812D0FFF754FD00900AE0286A3843B0
:100870002862F1E7FFF74CFD0099411A5348814285
:1008800049D8286A8007F5D50DE0FFF741FD0090B3
:1008900006E0FFF73DFD0099411A4C4881423AD8E5
:1008A000286A8007F5D40198002804D0E96901205E
:1008B00000078143E9612078C00635D560690128C9
:1008C0000CD0401D686B23D038436863686B4008C8
:1008D00040006863FFF71CFD064622E0686B384362
:1008E0006863686B30436863FFF712FD064604E0F7
:1008F000FFF70EFD801B02285BD8686B8007F7D5D9
:10090000686BF8218843A169C900084368630BE05C
:10091000B8436863F4E74CE0FFF7FAFC801B022859
:1009200047D8686B8007F7D4206A002846D06968EA
:100930000907890F022943D00126360602282868B4
:1009400005D0B0432860FFF7E3FC044633E0B04332
:100950002860FFF7DDFC074604E0FFF7D9FCC01B69
:10096000022826D828688001F7D4E86AE16A0009DD
:1009700000010843E862616AA06A084369683D2291
:100980001204914308436860286830432860FFF7E9
:10099000BFFC044604E0FFF7BBFC001B022808D89C
:1009A00028688001F7D509E0FFF7B2FC001B022898
:1009B00001D90320FEBD28688001F5D40020FEBDCA
:1009C0000120FEBD001002400070004088130000AE
:1009D000042204490428086902D090430861704742
:1009E0001043FBE700E000E070470000094910B544
:1009F000401E884201D9012010BD074C60610321CF
:100A0000081F00F0ADFB0020A0610720206100203E
:100A100010BD0000FFFFFF0000E000E010B5FFF791
:100A2000E3FF10BD70B5040005D025462035687F72
:100A3000002802D006E0012070BD00202877204663
:100A400000F00AF802206877211D206800F016FCEB
:100A500001206877002070BD08B50068054988420C
:100A600007D10548C26981150A43C261C0690840BF
:100A7000009008BD002000400010024000B5006852
:100A8000094985B088420DD11020009002200190C4
:100A90000020029003900420049009206946C006BB
:100AA000FFF78CFB05B000BD00200040F8B50646FE
:100AB00004462036307F0D4601280DD001203077C6
:100AC000022070770427002A08D0042A16D0082AAA
:100AD0002AD00C2A4DD137E00220F8BD206800F062
:100AE00015FC2068816908221143816120688169B1
:100AF000B9438161206881692A6912E0206800F0A9
:100B000041FC206882690121C9020A438261206890
:100B100081690122920291438161206881692A6979
:100B200012021143816124E0206800F065FC206816
:100B3000C26908210A43C2612068C169B943C16121
:100B40002068C1692A6912E0206800F091FC2068E1
:100B5000C1690122D2021143C1612068C269012129
:100B600089028A43C2612068C1692A69120211435D
:100B7000C1610120707700203077F8BD70B50400A6
:100B800005D025462035687F002802D006E00120E8
:100B900070BD00202877204600F00AF80220687710
:100BA000211D206800F06AFB01206877002070BDDD
:100BB0007047000010B504460068012200F09AFB5F
:100BC0000A482168814205D00948814202D009487B
:100BD000814204D1486C0122D2031043486420684A
:100BE0000168012211430160002010BD002C01406A
:100BF000004401400048014070470000F8B5036818
:100C00000446D96918680D072D0F07D18A0605D546
:100C1000820603D5204600F0EFFCF8BD9A68002D4F
:100C200064D0D507ED0FFF26213606402E435DD058
:100C3000CE0706D0C60504D501261E62E36E3343F7
:100C4000E3668F0702230426002F06DAD70704D0B5
:100C500027683B62E76E3743E7664F0706D5D20742
:100C600004D022681662E26E1A43E2660A0709D5CA
:100C7000202202402A4305D0236808221A62E36E2C
:100C80001343E366E26E002AC7D0890604D58006C6
:100C900002D5204600F0B0FCE06E000703D42068C7
:100CA000806840061CD5204600F08AFC20688168D8
:100CB000490611D58168402291438160606E002809
:100CC0000AD012494163606EFFF746FA0028A4D0AB
:100CD000606E416B8847F8BD2046FFF78DFFF8BD79
:100CE0002046FFF789FF0020E066F8BD0A0605D51B
:100CF000020603D5204600F047FDF8BD4906FCD5A5
:100D00004006FAD5204600F06AFCF8BDAD15000893
:100D100070B5040005D025466035687A002802D0F9
:100D200006E0012070BD00202872204600F026F861
:100D30002420687220680168490849000160204643
:100D400000F098FC0128EDD0606A002802D020460F
:100D500000F0BEFB206841680122D202914341604D
:100D6000206881680822914381602068016801221F
:100D700011430160204600F010FC70BD00B5006812
:100D80000E4987B0884216D10D4882690121890336
:100D90000A4382618069084005900C20009002207F
:100DA00001900121032003900291049109206946DA
:100DB000C006FFF703FA07B000BD0000003801408D
:100DC0000010024070B5034660339C7A202C39D164
:100DD00000290BD0002A09D0012584682D03AC42DC
:100DE00006D10669002E03D1CE0701D0012070BDC7
:100DF0001E7A012E26D001261E7241650146403121
:100E00000A834A83FF22AC4204D10469002C07D133
:100E10000D4A05E0002C04D10469002C00D07F228B
:100E20008A830021C16622229A72197201688A6837
:100E300032438A6000680168FF2221321143016059
:100E4000002070BD022070BDFF010000F8B53D4CD0
:100E50003E496068401C60603B480068884270D131
:100E600022783B490025002A05D100200D54401C62
:100E7000C0B26428FAD3642A00D925703148801C96
:100E800002780A2A07D020780A54401C2070607823
:100E9000002803D14FE02570012060702C4A2DA15D
:100EA0001046643000F0DEFC29482BA16430FFF7C7
:100EB0002DF9206126482AA16430FFF727F96061E7
:100EC000234829A16430FFF721F9A061204829A116
:100ED0006430FFF71BF9E0610126092720697602DB
:100EE000FF06002804D0012231463846FFF70AFAEF
:100EF000A069002804D0002231463846FFF702FAE4
:100F000001266069B602002804D001223146384625
:100F1000FFF7F8F9E069002804D00022314638468E
:100F2000FFF7F0F90A497D23DB00642264310648AB
:100F300000F026F8657003490122891C0248FFF77A
:100F400041FFF8BD00000020F00000200038014003
:100F500028000020257300004C454431204F4E00EE
:100F60004C454432204F4E004C454431204F4646BC
:100F7000000000004C454432204F4646000000006F
:100F8000FFB5064604466036707A83B00D462028C9
:100F900058D1002D0CD00598002809D00120A16857
:100FA0000003814207D12069002804D1E80702D05C
:100FB000012007B0F0BD307A012843D00120307203
:100FC0000020E06621207072FFF7A2F90190274609
:100FD0004037059838820598788218E0788A401E54
:100FE000788206980090002280212046019B00F024
:100FF000FEFB002818D10120A1680003814202D124
:101000002069002812D02168287808856D1C788A0C
:101010000028E3D106980090002240212046019B41
:1010200000F0E5FB002808D00320C2E728882168EB
:10103000C005C00D0885AD1CE9E7202070720020B6
:101040003072B6E70220B4E77047FEE730B50F48CC
:1010500087B04269012149040A434261406903247F
:10106000084009256402ED06059000222146284625
:10107000FFF748F9002101200291039101900094AB
:1010800069462846FFF79AF807B030BD00100240C5
:1010900010B51A4888B018490160002418218460EE
:1010A00041600461C8218461C160FFF7BBFC002876
:1010B00003D03E2112A000F0D3FB1048FFF75EFDE5
:1010C000002803D043210EA000F0CAFB602000904E
:1010D000019402940022694604940848FFF7E6FC54
:1010E000002803D04C2106A000F0BAFB0348FFF70C
:1010F000C5FC08B010BD00000020004060010020C9
:101100002E2E2F5372632F74696D2E630000000022
:1011100010B50D480B490160E121490241600021F1
:101120008160C16001618161C1610C220162426123
:101130004162FFF7EDFD002803D0442103A000F039
:101140008FFB10BD00380140F00000202E2E2F53E1
:1011500072632F75736172742E6300007047000014
:101160008307FF22DB0E9A408907090E9940002869
:101170000BDA0007000F0838830808489B0018188E
:10118000C36993430B43C3617047830804489B00C2
:101190001B181868904308431860704700ED00E082
:1011A00000E400E07047704710B5FFF7B7F8FFF7AD
:1011B00035FC10BD30B595B00220009001251020FF
:1011C00003950024049008946846FFF757FA002816
:1011D00000D0FEE707200C900D940E9400210F9490
:1011E0000CA8FFF763F9002800D0FEE710A81095BF
:1011F0001294FFF7E7F8002800D0FEE7FFF7ECF9BC
:101200007D21C900FEF76CFFFFF7F0FB0420FFF71C
:10121000DFFB00221146501EFFF7D0F815B030BD9D
:10122000134801680122114301604168114A1140CD
:1012300041600168104A1140016001680122920476
:101240009143016041683F22120491434160C16AA9
:1012500009090901C162016BFF2214329143016344
:10126000416B4908490041630021816070470000DB
:10127000001002400CB8FF08FFFFF6FE70B50268D0
:10128000174B184E984201D0B04203D17024A243AC
:101290004C682243144C154D984208D0B04206D0F9
:1012A000134EB04203D0A04201D0A84204D103267D
:1012B0003602B243CE6832438026B2434E6932438F
:1012C00002608A68C2620A688262984203D0A042C1
:1012D00001D0A84201D1096901630121416170BDBA
:1012E000002C01400004004000440140004801403F
:1012F0000020004010B50123046A8B409C43046227
:10130000036A8A401343036210BD0000F0B5026A0D
:10131000520852000262056A436882697024A2433F
:1013200092080C6892001443022295438A68134E77
:101330002A43114DA84204D0B04202D0104FB84207
:1013400006D10827BA43CF681743042297433A4689
:10135000A84204D0B04202D0094DA84206D10325CC
:101360002D02AB434D691D438B692B434360846160
:10137000496841630262F0BD002C01400044014015
:101380000048014070B5026A10239A430262046A61
:101390004368826973252D02AA430D682D02154307
:1013A000202294438A6812012243104CA04208D1A3
:1013B0001446CA688026B443120122434024A24343
:1013C00005E00B4CA04202D00A4CA04208D10324F5
:1013D000A402A3434C69A4001C438B699B002343D4
:1013E0004360856149688163026270BD002C0140E1
:1013F000004401400048014070B5026AFF230133F8
:101400009A430262046A4368C2697025AA4392083B
:101410000D68920015430122520294438A68120219
:101420002243104CA04207D1C414A243CC6824022A
:1014300022430615B24305E00B4CA04202D00B4CF0
:10144000A04208D103242403A3434C6924011C4374
:101450008B691B0123434360C5614968C163026214
:1014600070BD0000002C01400044014000480140D4
:1014700030B5026A01231B039A430262056A42687F
:10148000C36973242402A3430C6824021C43012370
:101490005B039D438B681B032B430A4DA84205D079
:1014A000094DA84202D0094DA84205D10125AD033E
:1014B000AA434D69AD012A434260C4614968016491
:1014C000036230BD002C014000440140004801404F
:1014D00010B5818CC90707D001684A6801235B04F5
:1014E0009A43836A1A434A60818C890707D5016849
:1014F0004A6801231B049A43C36A1A434A60818CD9
:10150000490707D501684A6801239B049A43036B86
:101510001A434A60818C090707D501684A6801238C
:10152000DB039A43436B1A434A60818CC90607D593
:101530000268916801231B039943836B19439160EF
:10154000818C890607D501688A6801235B039A4369
:10155000C36B1A438A60818C490612D503685A68A6
:1015600001210905046C8A4322435A60026C8A42B5
:1015700007D10268516803235B059943436C194303
:101580005160818C090607D501684A680123DB0494
:10159000806C9A4302434A6010BD0021C16620223C
:1015A00060304272827201720846704710B5406A1C
:1015B0000022014640314A834A82FFF71DFB10BDDD
:1015C00001680A68FF2321339A430A6001688A6828
:1015D000520852008A60202160308172704710B535
:1015E00001680A6840239A430A60202269210A544C
:1015F000FFF72AFD002010BD70B5024640320346B9
:101600006033948B9D7A0168222D05D08869082269
:1016100010438861022070BD898C012685683603DD
:10162000B54202D10569002D0BD02140446D651CE7
:1016300045652170518B491E0904090C518307D05F
:1016400015E0456D21402980416D891C4165F1E718
:1016500001680A68FF242134A2430A6001688A688D
:10166000520852008A6020219972FFF7EFFB002098
:1016700070BD0000F8B504462369A268E6691A4304
:10168000636910213343002026681A4333680546F6
:10169000394F3B401343336023685A6803263603AF
:1016A000B243E66832435A60236AA26926681A4345
:1016B000B3680B273F02BB431343B3602F4A126B3F
:1016C0009207920F06D0012A08D0022A08D0032AD6
:1016D00007D101E0002104E0022102E0042100E042
:1016E00008210122E369D203934224D100290CD0BE
:1016F00002290DD0042913D0082917D0012501098A
:1017000009010007400F084332E0FEF76BFF09E0D4
:1017100061681B4A48088018FEF7E2FC80B2EEE7D9
:10172000FEF770FF616840004A08F4E76168012233
:1017300048081204EFE7002908D0022909D004293B
:101740000BD008290ED001252846F8BDFEF74AFF28
:1017500005E061680B4A480806E0FEF753FF616840
:101760004A0801E0616848088018FEF7B9FC80B2B9
:101770002168C860E8E70000F369FFFF001002403D
:101780000024F40000127A006921095C212901D0AB
:101790000220704702464032518A002912D00123AC
:1017A00081681B03994202D10169002915D0C16CDF
:1017B0004B1CC364006809780185508A401E508222
:1017C0000020704701680A6880239A430A60006815
:1017D0000168402211430160F2E7C16C0368098887
:1017E000C905C90D1985C16C891CC164E5E7FFB540
:1017F00081B017460E4604460A9D1DE0681C1BD0AA
:10180000002D05D0FEF784FD0499401AA84213D993
:1018100020680168FF22A13291430160206881683D
:10182000490849008160202060346072A072002065
:101830002072032005B0F0BD2068C169304688439E
:1018400004D00020B842D9D00020F3E70120F9E706
:1018500010B50248FFF7D2F910BD0000F0000020DB
:10186000FEE700000FB410B504A9074B02AA0398C5
:1018700000F01BF8044602A9002000F07FF8204683
:1018800010BC08BC04B018477D19000802E008C865
:10189000121F08C1002AFAD170477047002001E0EA
:1018A00001C1121F002AFBD17047FFB581B0054668
:1018B000002706E025280AD0049A039990476D1C5A
:1018C0007F1C28780028F5D1384605B0F0BD0022ED
:1018D00069786D1C10462E2913D1697804226D1C7D
:1018E0002A2909D102996D1C01C9029109E00A2334
:1018F0005843303808186D1C29780B46303B092BAB
:10190000F5D92B78002BDFD0632B07D0732B10D0A9
:10191000049A1846039990477F1C2DE002996C4663
:101920000B782370091D0291002161706E46012120
:1019300004E0029940C902910021C94352070AD527
:10194000002400E0641C84420DDA8C42FADB325D34
:10195000002AF7D107E0002400E0641C8C42FCDB85
:10196000305D0028F9D13F1904E03078049A761CE4
:1019700003999047641EF8D26D1CA2E70A68531CB5
:101980000B60107070470000FEF7D0FCFFF712FCF0
:10199000FFF75CFBFFF7BCFBFFF77AFB0022114669
:1019A0001B20FEF70BFD1B20FEF7FEFC0021134859
:1019B000FFF700F9012212491248FFF703FA104C11
:1019C000002601270D4DA41EA0680028E06801D064
:1019D000401C00E0401EE060012209490948FFF771
:1019E000F1F9E068C82800DDA660002800D1A760F2
:1019F000296848630A20FEF7D3FBE5E76001002071
:101A000002000020F00000200000000000000000A4
:101A10000102030406070809000000000102030494
:101A2000401A000800000020280000008C18000860
:101A3000681A000828000020780500009C1800089B
:101A40000000000000000000010000000000000095
:101A50000000000000000000000000000000000086
:081A60000000000000127A00F2
:04000005080000B13E
:00000001FF
